{
  "address": "0x5FC8d32690cc91D4c39d9d3abcBD16989F875707",
  "abi": [
    {
      "inputs": [
        {
          "internalType": "address",
          "name": "oracle",
          "type": "address"
        }
      ],
      "stateMutability": "nonpayable",
      "type": "constructor"
    },
    {
      "inputs": [
        {
          "internalType": "uint256",
          "name": "id",
          "type": "uint256"
        },
        {
          "internalType": "string",
          "name": "value",
          "type": "string"
        }
      ],
      "name": "fullfillRequest",
      "outputs": [],
      "stateMutability": "nonpayable",
      "type": "function"
    },
    {
      "inputs": [
        {
          "internalType": "string",
          "name": "url",
          "type": "string"
        },
        {
          "internalType": "string",
          "name": "path",
          "type": "string"
        }
      ],
      "name": "request",
      "outputs": [
        {
          "internalType": "uint256",
          "name": "",
          "type": "uint256"
        }
      ],
      "stateMutability": "payable",
      "type": "function"
    },
    {
      "inputs": [
        {
          "internalType": "uint256",
          "name": "",
          "type": "uint256"
        }
      ],
      "name": "values",
      "outputs": [
        {
          "internalType": "string",
          "name": "",
          "type": "string"
        }
      ],
      "stateMutability": "view",
      "type": "function"
    }
  ],
  "transactionHash": "0xfd0d03b0716ea5c98874e8f3756c8bf9c57a837d259e8f7e05101a963eadb2ce",
  "args": [
    "0x5FbDB2315678afecb367f032d93F642f64180aa3"
  ],
  "numDeployments": 3,
  "solcInputHash": "9e0f2831be66b560292f200fe4b143dc",
  "bytecode": "0x608060405234801561001057600080fd5b5060405161068438038061068483398101604081905261002f91610054565b600080546001600160a01b0319166001600160a01b0392909216919091179055610084565b60006020828403121561006657600080fd5b81516001600160a01b038116811461007d57600080fd5b9392505050565b6105f1806100936000396000f3fe6080604052600436106100345760003560e01c806301d511f11461003957806317429c841461005f5780635e383d2114610081575b600080fd5b61004c610047366004610301565b6100ae565b6040519081526020015b60405180910390f35b34801561006b57600080fd5b5061007f61007a366004610365565b61013a565b005b34801561008d57600080fd5b506100a161009c3660046103a2565b6101c4565b6040516100569190610401565b600080546040516333c841b760e01b81526001600160a01b0390911690829082906333c841b7906100ee90889088906305d0a72160e21b9060040161041b565b6020604051808303816000875af115801561010d573d6000803e3d6000fd5b505050506040513d601f19601f82011682018060405250810190610131919061045a565b95945050505050565b6000546001600160a01b031633146101a75760405162461bcd60e51b815260206004820152602660248201527f4f6e6c7920746865206f7261636c652063616e20757064617465207468652072604482015265195c5d595cdd60d21b606482015260840160405180910390fd5b60008281526001602052604090206101bf82826104fb565b505050565b600160205260009081526040902080546101dd90610473565b80601f016020809104026020016040519081016040528092919081815260200182805461020990610473565b80156102565780601f1061022b57610100808354040283529160200191610256565b820191906000526020600020905b81548152906001019060200180831161023957829003601f168201915b505050505081565b634e487b7160e01b600052604160045260246000fd5b600082601f83011261028557600080fd5b813567ffffffffffffffff808211156102a0576102a061025e565b604051601f8301601f19908116603f011681019082821181831017156102c8576102c861025e565b816040528381528660208588010111156102e157600080fd5b836020870160208301376000602085830101528094505050505092915050565b6000806040838503121561031457600080fd5b823567ffffffffffffffff8082111561032c57600080fd5b61033886838701610274565b9350602085013591508082111561034e57600080fd5b5061035b85828601610274565b9150509250929050565b6000806040838503121561037857600080fd5b82359150602083013567ffffffffffffffff81111561039657600080fd5b61035b85828601610274565b6000602082840312156103b457600080fd5b5035919050565b6000815180845260005b818110156103e1576020818501810151868301820152016103c5565b506000602082860101526020601f19601f83011685010191505092915050565b60208152600061041460208301846103bb565b9392505050565b60608152600061042e60608301866103bb565b828103602084015261044081866103bb565b91505063ffffffff60e01b83166040830152949350505050565b60006020828403121561046c57600080fd5b5051919050565b600181811c9082168061048757607f821691505b6020821081036104a757634e487b7160e01b600052602260045260246000fd5b50919050565b601f8211156101bf57600081815260208120601f850160051c810160208610156104d45750805b601f850160051c820191505b818110156104f3578281556001016104e0565b505050505050565b815167ffffffffffffffff8111156105155761051561025e565b610529816105238454610473565b846104ad565b602080601f83116001811461055e57600084156105465750858301515b600019600386901b1c1916600185901b1785556104f3565b600085815260208120601f198616915b8281101561058d5788860151825594840194600190910190840161056e565b50858210156105ab5787850151600019600388901b60f8161c191681555b5050505050600190811b0190555056fea26469706673582212209044a3d3177b3c80fed3923991999ea1654dc4f9cc19a353b2481cf5005be39364736f6c63430008130033",
  "devdoc": {
    "kind": "dev",
    "methods": {},
    "version": 1
  },
  "userdoc": {
    "kind": "user",
    "methods": {},
    "version": 1
  },
  "storageLayout": {
    "storage": [
      {
        "astId": 4,
        "contract": "contracts/Demo.sol:OracleUser",
        "label": "oracleAddress",
        "offset": 0,
        "slot": "0",
        "type": "t_address"
      },
      {
        "astId": 8,
        "contract": "contracts/Demo.sol:OracleUser",
        "label": "values",
        "offset": 0,
        "slot": "1",
        "type": "t_mapping(t_uint256,t_string_storage)"
      }
    ],
    "types": {
      "t_address": {
        "encoding": "inplace",
        "label": "address",
        "numberOfBytes": "20"
      },
      "t_mapping(t_uint256,t_string_storage)": {
        "encoding": "mapping",
        "key": "t_uint256",
        "label": "mapping(uint256 => string)",
        "numberOfBytes": "32",
        "value": "t_string_storage"
      },
      "t_string_storage": {
        "encoding": "bytes",
        "label": "string",
        "numberOfBytes": "32"
      },
      "t_uint256": {
        "encoding": "inplace",
        "label": "uint256",
        "numberOfBytes": "32"
      }
    }
  }
}