{
  "address": "0x5FbDB2315678afecb367f032d93F642f64180aa3",
  "abi": [
    {
      "inputs": [],
      "stateMutability": "nonpayable",
      "type": "constructor"
    },
    {
      "anonymous": false,
      "inputs": [
        {
          "indexed": false,
          "internalType": "uint256",
          "name": "id",
          "type": "uint256"
        },
        {
          "indexed": false,
          "internalType": "string",
          "name": "url",
          "type": "string"
        },
        {
          "indexed": false,
          "internalType": "string",
          "name": "path",
          "type": "string"
        },
        {
          "indexed": false,
          "internalType": "address",
          "name": "caller",
          "type": "address"
        }
      ],
      "name": "Requested",
      "type": "event"
    },
    {
      "inputs": [],
      "name": "currentId",
      "outputs": [
        {
          "internalType": "uint256",
          "name": "",
          "type": "uint256"
        }
      ],
      "stateMutability": "view",
      "type": "function"
    },
    {
      "inputs": [
        {
          "internalType": "uint256",
          "name": "id",
          "type": "uint256"
        },
        {
          "internalType": "string",
          "name": "value",
          "type": "string"
        }
      ],
      "name": "fullfillRequest",
      "outputs": [],
      "stateMutability": "nonpayable",
      "type": "function"
    },
    {
      "inputs": [],
      "name": "getCurrentId",
      "outputs": [
        {
          "internalType": "uint256",
          "name": "",
          "type": "uint256"
        }
      ],
      "stateMutability": "view",
      "type": "function"
    },
    {
      "inputs": [],
      "name": "getOracleCaller",
      "outputs": [
        {
          "internalType": "address",
          "name": "",
          "type": "address"
        }
      ],
      "stateMutability": "view",
      "type": "function"
    },
    {
      "inputs": [],
      "name": "getOracleOwner",
      "outputs": [
        {
          "internalType": "address",
          "name": "",
          "type": "address"
        }
      ],
      "stateMutability": "view",
      "type": "function"
    },
    {
      "inputs": [
        {
          "internalType": "uint256",
          "name": "id",
          "type": "uint256"
        }
      ],
      "name": "getRequests",
      "outputs": [
        {
          "components": [
            {
              "internalType": "uint256",
              "name": "id",
              "type": "uint256"
            },
            {
              "internalType": "string",
              "name": "url",
              "type": "string"
            },
            {
              "internalType": "string",
              "name": "path",
              "type": "string"
            },
            {
              "internalType": "string",
              "name": "value",
              "type": "string"
            },
            {
              "internalType": "address",
              "name": "caller",
              "type": "address"
            },
            {
              "internalType": "bytes4",
              "name": "callback",
              "type": "bytes4"
            }
          ],
          "internalType": "struct Oracle.Request",
          "name": "",
          "type": "tuple"
        }
      ],
      "stateMutability": "view",
      "type": "function"
    },
    {
      "inputs": [
        {
          "internalType": "uint256",
          "name": "id",
          "type": "uint256"
        }
      ],
      "name": "getRequestsCallback",
      "outputs": [
        {
          "internalType": "bytes4",
          "name": "",
          "type": "bytes4"
        }
      ],
      "stateMutability": "view",
      "type": "function"
    },
    {
      "inputs": [
        {
          "internalType": "uint256",
          "name": "id",
          "type": "uint256"
        }
      ],
      "name": "getRequestsCaller",
      "outputs": [
        {
          "internalType": "address",
          "name": "",
          "type": "address"
        }
      ],
      "stateMutability": "view",
      "type": "function"
    },
    {
      "inputs": [
        {
          "internalType": "uint256",
          "name": "id",
          "type": "uint256"
        }
      ],
      "name": "getRequestsValue",
      "outputs": [
        {
          "internalType": "string",
          "name": "",
          "type": "string"
        }
      ],
      "stateMutability": "view",
      "type": "function"
    },
    {
      "inputs": [],
      "name": "oracleCaller",
      "outputs": [
        {
          "internalType": "address",
          "name": "",
          "type": "address"
        }
      ],
      "stateMutability": "view",
      "type": "function"
    },
    {
      "inputs": [],
      "name": "oracleOwner",
      "outputs": [
        {
          "internalType": "address",
          "name": "",
          "type": "address"
        }
      ],
      "stateMutability": "view",
      "type": "function"
    },
    {
      "inputs": [
        {
          "internalType": "string",
          "name": "url",
          "type": "string"
        },
        {
          "internalType": "string",
          "name": "path",
          "type": "string"
        },
        {
          "internalType": "bytes4",
          "name": "callbackFunction",
          "type": "bytes4"
        }
      ],
      "name": "request",
      "outputs": [
        {
          "internalType": "uint256",
          "name": "",
          "type": "uint256"
        }
      ],
      "stateMutability": "nonpayable",
      "type": "function"
    },
    {
      "inputs": [
        {
          "internalType": "uint256",
          "name": "",
          "type": "uint256"
        }
      ],
      "name": "requests",
      "outputs": [
        {
          "internalType": "uint256",
          "name": "id",
          "type": "uint256"
        },
        {
          "internalType": "string",
          "name": "url",
          "type": "string"
        },
        {
          "internalType": "string",
          "name": "path",
          "type": "string"
        },
        {
          "internalType": "string",
          "name": "value",
          "type": "string"
        },
        {
          "internalType": "address",
          "name": "caller",
          "type": "address"
        },
        {
          "internalType": "bytes4",
          "name": "callback",
          "type": "bytes4"
        }
      ],
      "stateMutability": "view",
      "type": "function"
    },
    {
      "inputs": [
        {
          "internalType": "address",
          "name": "caller",
          "type": "address"
        }
      ],
      "name": "setCaller",
      "outputs": [],
      "stateMutability": "nonpayable",
      "type": "function"
    }
  ],
  "transactionHash": "0xd568eb66583540f934c71adcc8fb7c6e13523ca6f10da5da701b58eb15b19587",
  "args": [],
  "numDeployments": 1,
  "solcInputHash": "3ff5d9c9df9aea400ee17efb48870fb2",
  "bytecode": "0x6080604052600160025534801561001557600080fd5b5060008054336001600160a01b0319918216811783556001805490921617905561114a90819061004590396000f3fe608060405234801561001057600080fd5b50600436106100ea5760003560e01c8063b62221e01161008c578063d2a1a5a711610066578063d2a1a5a71461021b578063d5e7882914610247578063e00dd16114610267578063f57c4aac1461027057600080fd5b8063b62221e0146101d5578063beb92f55146101e8578063cc3185b4146101fb57600080fd5b80636c143862116100c85780636c1438621461014f57806380d9441e1461015757806381d12c581461019d578063a578be16146101c257600080fd5b806313694058146100ef57806317429c841461011957806333c841b71461012e575b600080fd5b6001546001600160a01b03165b6040516001600160a01b0390911681526020015b60405180910390f35b61012c610127366004610bf6565b610281565b005b61014161013c366004610c3d565b61040b565b604051908152602001610110565b600254610141565b610184610165366004610cc2565b600090815260036020526040902060040154600160a01b900460e01b90565b6040516001600160e01b03199091168152602001610110565b6101b06101ab366004610cc2565b610580565b60405161011096959493929190610d2b565b6000546100fc906001600160a01b031681565b6001546100fc906001600160a01b031681565b61012c6101f6366004610d98565b61075c565b61020e610209366004610cc2565b6107e2565b6040516101109190610dc8565b6100fc610229366004610cc2565b6000908152600360205260409020600401546001600160a01b031690565b61025a610255366004610cc2565b61088a565b6040516101109190610ddb565b61014160025481565b6000546001600160a01b03166100fc565b60008281526003602052604090206001546001600160a01b031633146102fd5760405162461bcd60e51b815260206004820152602660248201527f4f6e6c79207468652063616c6c65722063616e20757064617465207468652072604482015265195c5d595cdd60d21b60648201526084015b60405180910390fd5b6003810161030b8382610efc565b50600481015481546040516000926001600160a01b03811692600160a01b90910460e01b9161034291906003870190602401610fbc565b60408051601f198184030181529181526020820180516001600160e01b03166001600160e01b0319909416939093179092529051610380919061104f565b6000604051808303816000865af19150503d80600081146103bd576040519150601f19603f3d011682016040523d82523d6000602084013e6103c2565b606091505b50509050806104055760405162461bcd60e51b815260206004820152600f60248201526e10d85b1b189858dac819985a5b1959608a1b60448201526064016102f4565b50505050565b6040805160c081018252600254808252602080830187815283850187905284518083018652600080825260608601919091523360808601526001600160e01b0319871660a0860152928352600390915292812082518155925190929060018201906104769082610efc565b506040820151600282019061048b9082610efc565b50606082015160038201906104a09082610efc565b5060808201516004909101805460a09093015160e01c600160a01b026001600160c01b03199093166001600160a01b03909216919091179190911790556040805180820190915260118152704e6577205265717565737420496420257360781b60208201526002546105129190610ae9565b7fb7ffa8042ed7c6580b0a8c27a3c22a2127c9f5373887718632e25b32d98c79af600254858533604051610549949392919061106b565b60405180910390a160016002600082825461056491906110c6565b9091555050600254610578906001906110df565b949350505050565b600360205260009081526040902080546001820180549192916105a290610e73565b80601f01602080910402602001604051908101604052809291908181526020018280546105ce90610e73565b801561061b5780601f106105f05761010080835404028352916020019161061b565b820191906000526020600020905b8154815290600101906020018083116105fe57829003601f168201915b50505050509080600201805461063090610e73565b80601f016020809104026020016040519081016040528092919081815260200182805461065c90610e73565b80156106a95780601f1061067e576101008083540402835291602001916106a9565b820191906000526020600020905b81548152906001019060200180831161068c57829003601f168201915b5050505050908060030180546106be90610e73565b80601f01602080910402602001604051908101604052809291908181526020018280546106ea90610e73565b80156107375780601f1061070c57610100808354040283529160200191610737565b820191906000526020600020905b81548152906001019060200180831161071a57829003601f168201915b505050600490930154919250506001600160a01b03811690600160a01b900460e01b86565b6000546001600160a01b031633146107c05760405162461bcd60e51b815260206004820152602160248201527f4f6e6c7920746865206f776e65722063616e20736574207468652063616c6c656044820152603960f91b60648201526084016102f4565b600180546001600160a01b0319166001600160a01b0392909216919091179055565b606060036000838152602001908152602001600020600301805461080590610e73565b80601f016020809104026020016040519081016040528092919081815260200182805461083190610e73565b801561087e5780601f106108535761010080835404028352916020019161087e565b820191906000526020600020905b81548152906001019060200180831161086157829003601f168201915b50505050509050919050565b6108d66040518060c001604052806000815260200160608152602001606081526020016060815260200160006001600160a01b0316815260200160006001600160e01b03191681525090565b600360008381526020019081526020016000206040518060c00160405290816000820154815260200160018201805461090e90610e73565b80601f016020809104026020016040519081016040528092919081815260200182805461093a90610e73565b80156109875780601f1061095c57610100808354040283529160200191610987565b820191906000526020600020905b81548152906001019060200180831161096a57829003601f168201915b505050505081526020016002820180546109a090610e73565b80601f01602080910402602001604051908101604052809291908181526020018280546109cc90610e73565b8015610a195780601f106109ee57610100808354040283529160200191610a19565b820191906000526020600020905b8154815290600101906020018083116109fc57829003601f168201915b50505050508152602001600382018054610a3290610e73565b80601f0160208091040260200160405190810160405280929190818152602001828054610a5e90610e73565b8015610aab5780601f10610a8057610100808354040283529160200191610aab565b820191906000526020600020905b815481529060010190602001808311610a8e57829003601f168201915b5050509183525050600491909101546001600160a01b0381166020830152600160a01b900460e01b6001600160e01b03191660409091015292915050565b610b2e8282604051602401610aff9291906110f2565b60408051601f198184030181529190526020810180516001600160e01b03166309710a9d60e41b179052610b32565b5050565b80516a636f6e736f6c652e6c6f67602083016000808483855afa5050505050565b634e487b7160e01b600052604160045260246000fd5b600082601f830112610b7a57600080fd5b813567ffffffffffffffff80821115610b9557610b95610b53565b604051601f8301601f19908116603f01168101908282118183101715610bbd57610bbd610b53565b81604052838152866020858801011115610bd657600080fd5b836020870160208301376000602085830101528094505050505092915050565b60008060408385031215610c0957600080fd5b82359150602083013567ffffffffffffffff811115610c2757600080fd5b610c3385828601610b69565b9150509250929050565b600080600060608486031215610c5257600080fd5b833567ffffffffffffffff80821115610c6a57600080fd5b610c7687838801610b69565b94506020860135915080821115610c8c57600080fd5b50610c9986828701610b69565b92505060408401356001600160e01b031981168114610cb757600080fd5b809150509250925092565b600060208284031215610cd457600080fd5b5035919050565b60005b83811015610cf6578181015183820152602001610cde565b50506000910152565b60008151808452610d17816020860160208601610cdb565b601f01601f19169290920160200192915050565b86815260c060208201526000610d4460c0830188610cff565b8281036040840152610d568188610cff565b90508281036060840152610d6a8187610cff565b6001600160a01b0395909516608084015250506001600160e01b03199190911660a090910152949350505050565b600060208284031215610daa57600080fd5b81356001600160a01b0381168114610dc157600080fd5b9392505050565b602081526000610dc16020830184610cff565b60208152815160208201526000602083015160c06040840152610e0160e0840182610cff565b90506040840151601f1980858403016060860152610e1f8383610cff565b9250606086015191508085840301608086015250610e3d8282610cff565b60808601516001600160a01b031660a086810191909152909501516001600160e01b03191660c090940193909352509192915050565b600181811c90821680610e8757607f821691505b602082108103610ea757634e487b7160e01b600052602260045260246000fd5b50919050565b601f821115610ef757600081815260208120601f850160051c81016020861015610ed45750805b601f850160051c820191505b81811015610ef357828155600101610ee0565b5050505b505050565b815167ffffffffffffffff811115610f1657610f16610b53565b610f2a81610f248454610e73565b84610ead565b602080601f831160018114610f5f5760008415610f475750858301515b600019600386901b1c1916600185901b178555610ef3565b600085815260208120601f198616915b82811015610f8e57888601518255948401946001909101908401610f6f565b5085821015610fac5787850151600019600388901b60f8161c191681555b5050505050600190811b01905550565b8281526000602060408184015260008454610fd681610e73565b8060408701526060600180841660008114610ff8576001811461101257611040565b60ff1985168984015283151560051b890183019550611040565b896000528660002060005b858110156110385781548b820186015290830190880161101d565b8a0184019650505b50939998505050505050505050565b60008251611061818460208701610cdb565b9190910192915050565b8481526080602082015260006110846080830186610cff565b82810360408401526110968186610cff565b91505060018060a01b038316606083015295945050505050565b634e487b7160e01b600052601160045260246000fd5b808201808211156110d9576110d96110b0565b92915050565b818103818111156110d9576110d96110b0565b6040815260006111056040830185610cff565b9050826020830152939250505056fea2646970667358221220d24ade35daf13ed7d7bc933ff8c245a1c03b293833e16224a914b4e2c75a0fcb64736f6c63430008130033",
  "devdoc": {
    "kind": "dev",
    "methods": {},
    "version": 1
  },
  "userdoc": {
    "kind": "user",
    "methods": {},
    "version": 1
  },
  "storageLayout": {
    "storage": [
      {
        "astId": 85,
        "contract": "contracts/Oracle.sol:Oracle",
        "label": "oracleOwner",
        "offset": 0,
        "slot": "0",
        "type": "t_address"
      },
      {
        "astId": 87,
        "contract": "contracts/Oracle.sol:Oracle",
        "label": "oracleCaller",
        "offset": 0,
        "slot": "1",
        "type": "t_address"
      },
      {
        "astId": 103,
        "contract": "contracts/Oracle.sol:Oracle",
        "label": "currentId",
        "offset": 0,
        "slot": "2",
        "type": "t_uint256"
      },
      {
        "astId": 108,
        "contract": "contracts/Oracle.sol:Oracle",
        "label": "requests",
        "offset": 0,
        "slot": "3",
        "type": "t_mapping(t_uint256,t_struct(Request)100_storage)"
      }
    ],
    "types": {
      "t_address": {
        "encoding": "inplace",
        "label": "address",
        "numberOfBytes": "20"
      },
      "t_bytes4": {
        "encoding": "inplace",
        "label": "bytes4",
        "numberOfBytes": "4"
      },
      "t_mapping(t_uint256,t_struct(Request)100_storage)": {
        "encoding": "mapping",
        "key": "t_uint256",
        "label": "mapping(uint256 => struct Oracle.Request)",
        "numberOfBytes": "32",
        "value": "t_struct(Request)100_storage"
      },
      "t_string_storage": {
        "encoding": "bytes",
        "label": "string",
        "numberOfBytes": "32"
      },
      "t_struct(Request)100_storage": {
        "encoding": "inplace",
        "label": "struct Oracle.Request",
        "members": [
          {
            "astId": 89,
            "contract": "contracts/Oracle.sol:Oracle",
            "label": "id",
            "offset": 0,
            "slot": "0",
            "type": "t_uint256"
          },
          {
            "astId": 91,
            "contract": "contracts/Oracle.sol:Oracle",
            "label": "url",
            "offset": 0,
            "slot": "1",
            "type": "t_string_storage"
          },
          {
            "astId": 93,
            "contract": "contracts/Oracle.sol:Oracle",
            "label": "path",
            "offset": 0,
            "slot": "2",
            "type": "t_string_storage"
          },
          {
            "astId": 95,
            "contract": "contracts/Oracle.sol:Oracle",
            "label": "value",
            "offset": 0,
            "slot": "3",
            "type": "t_string_storage"
          },
          {
            "astId": 97,
            "contract": "contracts/Oracle.sol:Oracle",
            "label": "caller",
            "offset": 0,
            "slot": "4",
            "type": "t_address"
          },
          {
            "astId": 99,
            "contract": "contracts/Oracle.sol:Oracle",
            "label": "callback",
            "offset": 20,
            "slot": "4",
            "type": "t_bytes4"
          }
        ],
        "numberOfBytes": "160"
      },
      "t_uint256": {
        "encoding": "inplace",
        "label": "uint256",
        "numberOfBytes": "32"
      }
    }
  }
}