{
  "address": "0x819DBba22b3E1B1c4fcf692c7e8B41661f61F860",
  "abi": [
    {
      "inputs": [
        {
          "internalType": "address",
          "name": "oracle",
          "type": "address"
        }
      ],
      "stateMutability": "nonpayable",
      "type": "constructor"
    },
    {
      "anonymous": false,
      "inputs": [
        {
          "indexed": true,
          "internalType": "uint256",
          "name": "id",
          "type": "uint256"
        }
      ],
      "name": "RequestMade",
      "type": "event"
    },
    {
      "inputs": [
        {
          "internalType": "uint256",
          "name": "id",
          "type": "uint256"
        },
        {
          "internalType": "string",
          "name": "value",
          "type": "string"
        }
      ],
      "name": "fullfillRequest",
      "outputs": [],
      "stateMutability": "nonpayable",
      "type": "function"
    },
    {
      "inputs": [
        {
          "internalType": "string",
          "name": "url",
          "type": "string"
        },
        {
          "internalType": "string",
          "name": "path",
          "type": "string"
        }
      ],
      "name": "request",
      "outputs": [
        {
          "internalType": "uint256",
          "name": "",
          "type": "uint256"
        }
      ],
      "stateMutability": "payable",
      "type": "function"
    },
    {
      "inputs": [
        {
          "internalType": "uint256",
          "name": "",
          "type": "uint256"
        }
      ],
      "name": "values",
      "outputs": [
        {
          "internalType": "string",
          "name": "",
          "type": "string"
        }
      ],
      "stateMutability": "view",
      "type": "function"
    }
  ],
  "transactionHash": "0x1e8aeb53c48e41ec67929b1d97d1200ff455968fdd116bff53dbd159486be634",
  "args": [
    "0x2c8CEc9B25DbFEAC623b42CbAb268A4409Fe73E1"
  ],
  "numDeployments": 2,
  "solcInputHash": "83934458f16650b356f77f8066c78f6e",
  "bytecode": "0x608060405234801561001057600080fd5b506040516106b13803806106b183398101604081905261002f91610054565b600080546001600160a01b0319166001600160a01b0392909216919091179055610084565b60006020828403121561006657600080fd5b81516001600160a01b038116811461007d57600080fd5b9392505050565b61061e806100936000396000f3fe6080604052600436106100345760003560e01c806301d511f11461003957806317429c841461005f5780635e383d2114610081575b600080fd5b61004c61004736600461032e565b6100ae565b6040519081526020015b60405180910390f35b34801561006b57600080fd5b5061007f61007a366004610392565b610167565b005b34801561008d57600080fd5b506100a161009c3660046103cf565b6101f1565b604051610056919061042e565b600080546040516333c841b760e01b81526001600160a01b0390911690829082906333c841b7906100ee90889088906305d0a72160e21b90600401610448565b6020604051808303816000875af115801561010d573d6000803e3d6000fd5b505050506040513d601f19601f820116820180604052508101906101319190610487565b60405190915081907f3943fa4974de4196c692c87397a511446a82f2d2e61be40d73ecaae88fc7331c90600090a2949350505050565b6000546001600160a01b031633146101d45760405162461bcd60e51b815260206004820152602660248201527f4f6e6c7920746865206f7261636c652063616e20757064617465207468652072604482015265195c5d595cdd60d21b606482015260840160405180910390fd5b60008281526001602052604090206101ec8282610528565b505050565b6001602052600090815260409020805461020a906104a0565b80601f0160208091040260200160405190810160405280929190818152602001828054610236906104a0565b80156102835780601f1061025857610100808354040283529160200191610283565b820191906000526020600020905b81548152906001019060200180831161026657829003601f168201915b505050505081565b634e487b7160e01b600052604160045260246000fd5b600082601f8301126102b257600080fd5b813567ffffffffffffffff808211156102cd576102cd61028b565b604051601f8301601f19908116603f011681019082821181831017156102f5576102f561028b565b8160405283815286602085880101111561030e57600080fd5b836020870160208301376000602085830101528094505050505092915050565b6000806040838503121561034157600080fd5b823567ffffffffffffffff8082111561035957600080fd5b610365868387016102a1565b9350602085013591508082111561037b57600080fd5b50610388858286016102a1565b9150509250929050565b600080604083850312156103a557600080fd5b82359150602083013567ffffffffffffffff8111156103c357600080fd5b610388858286016102a1565b6000602082840312156103e157600080fd5b5035919050565b6000815180845260005b8181101561040e576020818501810151868301820152016103f2565b506000602082860101526020601f19601f83011685010191505092915050565b60208152600061044160208301846103e8565b9392505050565b60608152600061045b60608301866103e8565b828103602084015261046d81866103e8565b91505063ffffffff60e01b83166040830152949350505050565b60006020828403121561049957600080fd5b5051919050565b600181811c908216806104b457607f821691505b6020821081036104d457634e487b7160e01b600052602260045260246000fd5b50919050565b601f8211156101ec57600081815260208120601f850160051c810160208610156105015750805b601f850160051c820191505b818110156105205782815560010161050d565b505050505050565b815167ffffffffffffffff8111156105425761054261028b565b6105568161055084546104a0565b846104da565b602080601f83116001811461058b57600084156105735750858301515b600019600386901b1c1916600185901b178555610520565b600085815260208120601f198616915b828110156105ba5788860151825594840194600190910190840161059b565b50858210156105d85787850151600019600388901b60f8161c191681555b5050505050600190811b0190555056fea26469706673582212208760c0b23f58e5014b7f947ce99556eb638c1512eb51a1c7f4618a3ed51b88f364736f6c63430008130033",
  "devdoc": {
    "kind": "dev",
    "methods": {},
    "version": 1
  },
  "userdoc": {
    "kind": "user",
    "methods": {},
    "version": 1
  },
  "storageLayout": {
    "storage": [
      {
        "astId": 4,
        "contract": "contracts/Demo.sol:OracleUser",
        "label": "oracleAddress",
        "offset": 0,
        "slot": "0",
        "type": "t_address"
      },
      {
        "astId": 8,
        "contract": "contracts/Demo.sol:OracleUser",
        "label": "values",
        "offset": 0,
        "slot": "1",
        "type": "t_mapping(t_uint256,t_string_storage)"
      }
    ],
    "types": {
      "t_address": {
        "encoding": "inplace",
        "label": "address",
        "numberOfBytes": "20"
      },
      "t_mapping(t_uint256,t_string_storage)": {
        "encoding": "mapping",
        "key": "t_uint256",
        "label": "mapping(uint256 => string)",
        "numberOfBytes": "32",
        "value": "t_string_storage"
      },
      "t_string_storage": {
        "encoding": "bytes",
        "label": "string",
        "numberOfBytes": "32"
      },
      "t_uint256": {
        "encoding": "inplace",
        "label": "uint256",
        "numberOfBytes": "32"
      }
    }
  }
}